                                                                     
                                                                     
                                                                     
                                             
0100001266986130831CB2343130801         000021      0001321204                        000352 FEUR                              *
0200001         G26393BRIE PRESIDENT 60% 1K         PZ00002000000057950000115700002 04 1                                       *
0200001         070214GALBANINO FETTE G 125         PZ00014000000021200000296500014 04 1                                       *
0200001         073712GALBANINO G 230 FLASH         PZ00010000000018800000188000010 04 1                                       *
0200001         588626MORT AUGUSTISSIMA K 30 1/2 C PKG00013440000045700000614800000 10 1                                       *
0200001         092445CERTOSA LIGHT 200 GR.         PZ00012000000021800000261500012 04 1                                       *
0200001         092443MOZZARELLA S.LUCIA LIGHT G 125PZ00012000000000000000000000012 04 8                                       *
0100002266986130831CB2350130802         000021      0001321204                        000352 FEUR                              *
0200002         099203FETTE DI MOZZARELLA SANTA LUCIPZ00008000000034000000271600008 04 1                                       *
0200002         058412GORGONZOLA DOLCELATTE G 150   PZ00012000000017000000203800012 04 1                                       *
0200002         058412GORGONZOLA DOLCELATTE G 150   PZ00004000000000000000000000004 04 8                                       *
0200002         031310CERTOSA G 165                 PZ00006000000016600000099300006 04 1                                       *
0200002         091649BEL PAESE 250 G               PZ00006000000026000000155700006 04 1                                       *
0200002         G00710MOZZ.PIZZAIOLA 100 G          PZ00018000000005200000093500018 04 1                                       *
0200002         G00710MOZZ.PIZZAIOLA 100 G          PZ00010000000005200000051900010 04 1                                       *
0200002         713110KINDER PINGUI CACAO           PZ00003000000015100000045300003 10 1                                       *
0200002         712010KINDER PARADISO               PZ00005000000016700000083500005 10 1                                       *
0200002         090645RICOTTA S.L. K 1,5            PZ00001000000046400000046400001 04 1                                       *
0200002         090645RICOTTA S.L. K 1,5            PZ00001000000046400000046400001 04 1                                       *
0200002         032330CERTOSA 1/4 TF S-PR           KG00004140000050890000210400000 04 1                                       *
0200002         032330CERTOSA 1/4 TF S-PR           KG00001070000050790000054300000 04 1                                       *
0200002         092445CERTOSA LIGHT 200 GR.         PZ00002000000021800000043600002 04 1                                       *
0200002         092443MOZZARELLA S.LUCIA LIGHT G 125PZ00002000000000000000000000002 04 8                                       *
0100003266986130831CB2357130805         000021      0001321204                        000352 FEUR                              *
0200003         099351PANCETTA AFFETTATA G100       PZ00005000000017700000088500005 10 1                                       *
0200003         099352SPECK AFFETTATO G100          PZ00005000000022300000111600005 10 1                                       *
0200003         099353PROS. DI PARMA DOP AFF. G90   PZ00002000000027200000054400002 10 1                                       *
0200003         099354COPPA DI PARMA IGP AFF. G100  PZ00005000000022300000111600005 10 1                                       *
0200003         138610MOZZARELLA VLT CIUFFO         PZ00010000000011800000117700010 04 1                                       *
0200003         099158MOZZ CIUFFO BUFALA CAMP DOP VLPZ00002000000019600000039200002 04 1                                       *
0200003         099158MOZZ CIUFFO BUFALA CAMP DOP VLPZ00005000000019600000097900005 04 1                                       *
0200003         092508PROSCIUTTO COTTO  G 120       PZ00001000000025500000025500001 10 1                                       *
0200003         031310CERTOSA G 165                 PZ00012000000016500000198500012 04 1                                       *
0200003         030416CERTOSA G 100                 PZ00012000000010300000123400012 04 1                                       *
0200003         L01148MASCARPONE INVERNIZZI 500 g   PZ00002000000033600000067200002 04 1                                       *
0200003         L01148MASCARPONE INVERNIZZI 500 g   PZ00002000000000000000000000002 04 8                                       *
0200003         085819GALBANI GIM FIOR DI GOCCIA    PZ00004000000027900000111700004 04 1                                       *
0200003         085819GALBANI GIM FIOR DI GOCCIA    PZ00002000000000000000000000002 04 8                                       *
0200003         099333BURRATA VALLELATA 150G        PZ00004000000016800000067200004 04 1                                       *
0200003         197412RICOTTA VALLELATA G100X2      PZ00009000000012100000108900009 04 1                                       *
0200003         138510MOZZ. BOCC. VALLELATA G 25 X 8PZ00003000000026000000078100003 04 1                                       *
0200003         214436GALBI VANIGLIA AMBX2 BONTALATTPZ00010000000006800000067900010 10 1                                       *
0200003         214430GALBI FRAGOLA AMBX2 BONTALATTEPZ00005000000006800000033900005 10 1                                       *
0200003         134612S. LUCIA G 125 FLASH          PZ00024000000009600000230500024 04 1                                       *
0200003         G00710MOZZ.PIZZAIOLA 100 G          PZ00010000000005200000051900010 04 1                                       *
0200003         G00710MOZZ.PIZZAIOLA 100 G          PZ00020000000005200000103900020 04 1                                       *
0200003         032014CERTOSA STRACREMOSA           KG00001200000110300000132300000 04 1                                       *
0200003         032330CERTOSA 1/4 TF S-PR           KG00002000000050990000101700000 04 1                                       *
0200003         010115BEL PAESE K 2,5 NEW           KG00002470000080730000199400000 04 1                                       *
0200003         G26393BRIE PRESIDENT 60% 1K         PZ00002000000057950000115700002 04 1                                       *
0200003         092445CERTOSA LIGHT 200 GR.         PZ00006000000021800000130800006 04 1                                       *
0200003         092443MOZZARELLA S.LUCIA LIGHT G 125PZ00006000000000000000000000006 04 8                                       *
0200003         032014CERTOSA STRACREMOSA           KG00000240000000000000000000000 04 8                                       *
0100004266986130831CB2376130809         000021      0001321204                        000352 FEUR                              *
0200004         092498MOZZARELLA CILIEGIE S.LUCIA 15PZ00006000000018800000112900006 04 1                                       *
0200004         197412RICOTTA VALLELATA G100X2      PZ00006000000012100000072600006 04 1                                       *
0200004         099333BURRATA VALLELATA 150G        PZ00002000000016800000033600002 04 1                                       *
0200004         138610MOZZARELLA VLT CIUFFO         PZ00007000000011800000082400007 04 1                                       *
0200004         138610MOZZARELLA VLT CIUFFO         PZ00003000000000000000000000003 04 8                                       *
0200004         030416CERTOSA G 100                 PZ00012000000000000000000000012 04 8                                       *
0200004         031310CERTOSA G 165                 PZ00004000000016500000066100004 04 1                                       *
0200004         031310CERTOSA G 165                 PZ00002000000000000000000000002 04 8                                       *
0200004         092529VALLELATA PRIMO LATTE 2X100G  PZ00006000000021200000127300006 04 1                                       *
0200004         134612S. LUCIA G 125 FLASH          PZ00006000000009600000057600006 04 1                                       *
0200004         134612S. LUCIA G 125 FLASH          PZ00012000000009600000115300012 04 1                                       *
0200004         G00710MOZZ.PIZZAIOLA 100 G          PZ00010000000005200000051900010 04 1                                       *
0200004         G00710MOZZ.PIZZAIOLA 100 G          PZ00020000000005200000103900020 04 1                                       *
0200004         032330CERTOSA 1/4 TF S-PR           KG00000500000050890000025400000 04 1                                       *
0200004         032330CERTOSA 1/4 TF S-PR           KG00001590000050890000080800000 04 1                                       *
0200004         032330CERTOSA 1/4 TF S-PR           KG00002570000050990000130700000 04 1                                       *
0200004         090645RICOTTA S.L. K 1,5            PZ00003000000046400000139100003 04 1                                       *
0200004         099158MOZZ CIUFFO BUFALA CAMP DOP VLPZ00005000000019600000097900005 04 1                                       *
0100005266986130831CB2383130812         000021      0001321204                        000352 FEUR                              *
0200005         172012MASCARPONE G 250 CART         PZ00008000000022500000179700008 04 1                                       *
0200005         138610MOZZARELLA VLT CIUFFO         PZ00005000000011800000058800005 04 1                                       *
0200005         L40403INVERNIZZINA 200 g            PZ00006000000017600000105700006 04 1                                       *
0200005         L40403INVERNIZZINA 200 g            PZ00006000000000000000000000006 04 8                                       *
0200005         030416CERTOSA G 100                 PZ00012000000010300000123400012 04 1                                       *
0200005         099333BURRATA VALLELATA 150G        PZ00004000000016800000067200004 04 1                                       *
0200005         138510MOZZ. BOCC. VALLELATA G 25 X 8PZ00003000000026000000078100003 04 1                                       *
0200005         134612S. LUCIA G 125 FLASH          PZ00012000000009600000115300012 04 1                                       *
0200005         G00710MOZZ.PIZZAIOLA 100 G          PZ00009000000005200000046800009 04 1                                       *
0200005         711010KINDER FETTA LATTE            PZ00003000000015900000047700003 10 1                                       *
0200005         712010KINDER PARADISO               PZ00004000000016700000066800004 10 1                                       *
0200005         713110KINDER PINGUI CACAO           PZ00002000000015100000030200002 10 1                                       *
0200005         713110KINDER PINGUI CACAO           PZ00003000000015100000045300003 10 1                                       *
0200005         032330CERTOSA 1/4 TF S-PR           KG00002000000050990000101700000 04 1                                       *
0200005         085819GALBANI GIM FIOR DI GOCCIA    PZ00002000000000000000000000002 04 8                                       *
0200005         032014CERTOSA STRACREMOSA           KG00001390000110200000153200000 04 1                                       *
0200005         197412RICOTTA VALLELATA G100X2      PZ00006000000012100000072600006 04 1                                       *
0200005         G00710MOZZ.PIZZAIOLA 100 G          PZ00001000000000000000000000001 04 8                                       *
0200005         092445CERTOSA LIGHT 200 GR.         PZ00006000000000000000000000006 04 8                                       *
0200005         L40403INVERNIZZINA 200 g            PZ00012000000000000000000000012 04 8                                       *
0100006266986130831CB2392130814         000021      0001321204                        000352 FEUR                              *
0200006         031310CERTOSA G 165                 PZ00006000000016600000099300006 04 1                                       *
0200006         099333BURRATA VALLELATA 150G        PZ00004000000016800000067200004 04 1                                       *
0200006         197412RICOTTA VALLELATA G100X2      PZ00004000000012100000048400004 04 1                                       *
0200006         138610MOZZARELLA VLT CIUFFO         PZ00010000000011800000117700010 04 1                                       *
0200006         099158MOZZ CIUFFO BUFALA CAMP DOP VLPZ00001000000000000000000000001 04 8                                       *
0200006         099158MOZZ CIUFFO BUFALA CAMP DOP VLPZ00002000000019600000039200002 04 1                                       *
0200006         055160EMMENTAL PRESIDENT 250 GR     PZ00004000000024200000096900004 04 1                                       *
0200006         G00710MOZZ.PIZZAIOLA 100 G          PZ00030000000005200000155800030 04 1                                       *
0200006         134612S. LUCIA G 125 FLASH          PZ00012000000009600000115300012 04 1                                       *
0200006         032330CERTOSA 1/4 TF S-PR           KG00003630000050890000184500000 04 1                                       *
0200006         090645RICOTTA S.L. K 1,5            PZ00002000000046400000092700002 04 1                                       *
0200006         713110KINDER PINGUI CACAO           PZ00003000000000000000000000003 10 8                                       *
0100007266986130831CB2398130816         000021      0001321204                        000352 FEUR                              *
0200007         031310CERTOSA G 165                 PZ00012000000016500000198500012 04 1                                       *
0200007         030416CERTOSA G 100                 PZ00011000000010300000113100011 04 1                                       *
0200007         G00710MOZZ.PIZZAIOLA 100 G          PZ00010000000005200000051900010 04 1                                       *
0200007         194013RICOTTA S.L. G 250            PZ00004000000010200000040700004 04 1                                       *
0200007         092445CERTOSA LIGHT 200 GR.         PZ00006000000000000000000000006 04 8                                       *
0200007         032014CERTOSA STRACREMOSA           KG00001180000000000000000000000 04 8                                       *
0100008266986130831CB2404130819         000021      0001321204                        000352 FEUR                              *
0200008         588626MORT AUGUSTISSIMA K 30 1/2 C PKG00026140000045700001195700000 10 1                                       *
0200008         197412RICOTTA VALLELATA G100X2      PZ00006000000012100000072600006 04 1                                       *
0200008         138610MOZZARELLA VLT CIUFFO         PZ00008000000011800000094200008 04 1                                       *
0200008         099158MOZZ CIUFFO BUFALA CAMP DOP VLPZ00002000000000000000000000002 04 8                                       *
0200008         055160EMMENTAL PRESIDENT 250 GR     PZ00006000000024200000145200006 04 1                                       *
0200008         G00710MOZZ.PIZZAIOLA 100 G          PZ00020000000005200000103900020 04 1                                       *
0200008         134612S. LUCIA G 125 FLASH          PZ00006000000009600000057600006 04 1                                       *
0200008         134612S. LUCIA G 125 FLASH          PZ00012000000009600000115300012 04 1                                       *
0200008         099127PEC STAG R.NERA CADEMARTORI   KG00006420000107400000689200000 04 1                                       *
0200008         092529VALLELATA PRIMO LATTE 2X100G  PZ00006000000021200000127300006 04 1                                       *
0100009266986130831CB2415130823         000021      0001321204                        000352 FEUR                              *
0200009         092498MOZZARELLA CILIEGIE S.LUCIA 15PZ00003000000000000000000000003 04 8                                       *
0200009         092498MOZZARELLA CILIEGIE S.LUCIA 15PZ00001000000018800000018800001 04 1                                       *
0200009         L40403INVERNIZZINA 200 g            PZ00004000000017600000070500004 04 1                                       *
0200009         L40403INVERNIZZINA 200 g            PZ00008000000000000000000000008 04 8                                       *
0200009         194013RICOTTA S.L. G 250            PZ00001000000000000000000000001 04 8                                       *
0200009         240710CBP X 8 FLASH                 PZ00010000000010600000105600010 04 1                                       *
0200009         030416CERTOSA G 100                 PZ00012000000010300000123400012 04 1                                       *
0200009         138610MOZZARELLA VLT CIUFFO         PZ00006000000010600000063300006 04 1                                       *
0200009         138610MOZZARELLA VLT CIUFFO         PZ00004000000000000000000000004 04 8                                       *
0200009         099158MOZZ CIUFFO BUFALA CAMP DOP VLPZ00001000000000000000000000001 04 8                                       *
0200009         099158MOZZ CIUFFO BUFALA CAMP DOP VLPZ00002000000000000000000000002 04 8                                       *
0200009         194013RICOTTA S.L. G 250            PZ00004000000010200000040700004 04 1                                       *
0200009         197412RICOTTA VALLELATA G100X2      PZ00006000000012100000072600006 04 1                                       *
0200009         099333BURRATA VALLELATA 150G        PZ00003000000000000000000000003 04 8                                       *
0200009         214436GALBI VANIGLIA AMBX2 BONTALATTPZ00005000000006800000033900005 10 1                                       *
0200009         G00710MOZZ.PIZZAIOLA 100 G          PZ00030000000005200000155800030 04 1                                       *
0200009         134612S. LUCIA G 125 FLASH          PZ00012000000007100000085300012 04 1                                       *
0200009         010115BEL PAESE K 2,5 NEW           KG00004610000080730000372100000 04 1                                       *
0200009         032330CERTOSA 1/4 TF S-PR           KG00000550000050790000027900000 04 1                                       *
0200009         032330CERTOSA 1/4 TF S-PR           KG00003000000050890000152400000 04 1                                       *
0200009         G26393BRIE PRESIDENT 60% 1K         PZ00002000000057950000115700002 04 1                                       *
0200009         090645RICOTTA S.L. K 1,5            PZ00002000000046400000092700002 04 1                                       *
0200009         032330CERTOSA 1/4 TF S-PR           KG00001000000000000000000000000 04 8                                       *
0100010266986130831CB2420130823         000021      0001321204                        000352 FEUR                              *
0200010         138610MOZZARELLA VLT CIUFFO         PZ00010000000010500000105400010 04 1                                       *
0200010         099158MOZZ CIUFFO BUFALA CAMP DOP VLPZ00003000000016400000049200003 04 1                                       *
0200010         134612S. LUCIA G 125 FLASH          PZ00024000000007100000170600024 04 1                                       *
0100011266986130831CB2421130826         000021      0001321204                        000352 FEUR                              *
0200011         L60002TALEGGIO CADEMARTORI 200 g    PZ00002000000021800000043600002 04 1                                       *
0200011         L60002TALEGGIO CADEMARTORI 200 g    PZ00006000000000000000000000006 04 8                                       *
0200011         032330CERTOSA 1/4 TF S-PR           KG00004350000050890000221100000 04 1                                       *
0200011         049965EMMENTAL PRESIDENT FORMA 3,5 KKG00008490000059820000507500000 04 1                                       *
0200011         L28473LATTE UHT CAPRA P.S. LOCATELLIPZ00012000000014500000174000012 04 1                                       *
0200011         138510MOZZ. BOCC. VALLELATA G 25 X 8PZ00004000000026100000104300004 04 1                                       *
0200011         138510MOZZ. BOCC. VALLELATA G 25 X 8PZ00002000000000000000000000002 04 8                                       *
0200011         031310CERTOSA G 165                 PZ00012000000016500000198500012 04 1                                       *
0200011         197412RICOTTA VALLELATA G100X2      PZ00003000000012100000036300003 04 1                                       *
0200011         197412RICOTTA VALLELATA G100X2      PZ00006000000012100000072600006 04 1                                       *
0200011         055160EMMENTAL PRESIDENT 250 GR     PZ00004000000024200000096900004 04 1                                       *
0200011         099333BURRATA VALLELATA 150G        PZ00004000000016800000067200004 04 1                                       *
0200011         G00710MOZZ.PIZZAIOLA 100 G          PZ00010000000005200000051900010 04 1                                       *
0200011         134612S. LUCIA G 125 FLASH          PZ00024000000009600000230500024 04 1                                       *
0200011         712010KINDER PARADISO               PZ00002000000000000000000000002 10 8                                       *
0200011         712010KINDER PARADISO               PZ00003000000016700000050100003 10 1                                       *
0100012266986130831CB2431130828         000021      0001321204                        000352 FEUR                              *
0200012         030416CERTOSA G 100                 PZ00012000000010300000123400012 04 1                                       *
0200012         194013RICOTTA S.L. G 250            PZ00004000000010200000040700004 04 1                                       *
0200012         092498MOZZARELLA CILIEGIE S.LUCIA 15PZ00005000000018800000094100005 04 1                                       *
0200012         099158MOZZ CIUFFO BUFALA CAMP DOP VLPZ00003000000000000000000000003 04 8                                       *
0200012         073712GALBANINO G 230 FLASH         PZ00009000000018800000169200009 04 1                                       *
0200012         G00710MOZZ.PIZZAIOLA 100 G          PZ00014000000005200000072800014 04 1                                       *
0200012         091649BEL PAESE 250 G               PZ00003000000026000000077900003 04 1                                       *
0100013266986130831CB2440130830         000021      0001321204                        000352 FEUR                              *
0200013         134612S. LUCIA G 125 FLASH          PZ00096000000007100000682500096 04 1                                       *
0200013         099158MOZZ CIUFFO BUFALA CAMP DOP VLPZ00005000000014700000073400005 04 1                                       *
0200013         099158MOZZ CIUFFO BUFALA CAMP DOP VLPZ00010000000014700000146900010 04 1                                       *
0200013         138610MOZZARELLA VLT CIUFFO         PZ00015000000010500000158100015 04 1                                       *
0200013         050130GORGONZOLA D.O.P. DOLCELATTE 1KG00012880000053910000693800000 04 1                                       *
0200013         049965EMMENTAL PRESIDENT FORMA 3,5 KKG00039880000058720002340300000 04 1                                       *
0200013         L60000TALEGGIO CADEMARTORI DOP 2,2KGKG00007970000075730000603200000 04 1                                       *
0200013         099122CACIOTTA ROCCAPONTINA CADEMARTKG00010580000067400000713100000 04 1                                       *
0200013         099123PECORINO CADEMARTORI          KG00009900000061700000610800000 04 1                                       *
0200013         010115BEL PAESE K 2,5 NEW           KG00004670000075230000351100000 04 1                                       *
0200013         010115BEL PAESE K 2,5 NEW           KG00007720000075230000580400000 04 1                                       *
0200013         099123PECORINO CADEMARTORI          KG00002710000061700000167100000 04 1                                       *
0200013         242110ESPO CBP X 8 DA 30 PZ         PZ00002000000251900000503800002 04 1                                       *
0200013         214432GALBI CACAO AMBX2 BONTALATTE  PZ00036000000006600000235900036 10 1                                       *
0200013         214434GALBI CARAMEL AMBX2 BONTALATTEPZ00036000000006600000235900036 10 1                                       *
0200013         214436GALBI VANIGLIA AMBX2 BONTALATTPZ00036000000006600000235900036 10 1                                       *
0200013         L09852PANNA DA CUCINA LOCATELLI 200 PZ00024000000006900000166000024 10 1                                       *
0200013         197412RICOTTA VALLELATA G100X2      PZ00007000000012100000084700007 04 1                                       *
0200013         031310CERTOSA G 165                 PZ00006000000016600000099300006 04 1                                       *
0200013         058412GORGONZOLA DOLCELATTE G 150   PZ00008000000017000000135800008 04 1                                       *
0200013         058412GORGONZOLA DOLCELATTE G 150   PZ00008000000000000000000000008 04 8                                       *
0200013         L26730BRIE PRESIDENT PUNTA 200 g    PZ00012000000023700000284700012 04 1                                       *
0200013         099333BURRATA VALLELATA 150G        PZ00001000000000000000000000001 04 8                                       *
0200013         030416CERTOSA G 100                 PZ00006000000010300000061700006 04 1                                       *
0200013         G00710MOZZ.PIZZAIOLA 100 G          PZ00020000000005200000103900020 04 1                                       *
0200013         032330CERTOSA 1/4 TF S-PR           KG00002140000049890000106600000 04 1                                       *
